:020000040800F2
:10000000F00E0020C9010008231D0008E51C0008AF
:10001000211D000899040008C333000800000000F7
:10002000000000000000000000000000051E0008A5
:10003000BD04000800000000031E0008291F00087E
:10004000E3010008E3010008E3010008E301000800
:10005000E3010008E3010008BF040008E301000811
:10006000E3010008E3010008E3010008E3010008E0
:10007000E3010008E3010008E3010008E3010008D0
:10008000E3010008E3010008E3010008E3010008C0
:10009000E3010008E3010008E3010008E3010008B0
:1000A000E3010008E3010008E3010008E3010008A0
:1000B000E3010008E3010008E3010008E301000890
:1000C000E3010008E3010008E3010008E301000880
:1000D000E3010008E3010008E3010008E301000870
:1000E000E3010008E3010008311D0008E3010008F6
:1000F000E3010008E3010008E3010008E301000850
:10010000E3010008E3010008E3010008E30100083F
:10011000E3010008E3010008E3010008E30100082F
:10012000E3010008E3010008E3010008E30100081F
:10013000E3010008E3010008E3010008E30100080F
:10014000E3010008E3010008E3010008251D0008A1
:10015000E3010008E3010008E3010008E3010008EF
:10016000E3010008E3010008E3010008E3010008DF
:10017000E3010008E3010008E301000800000000BB
:10018000E3010008E3010008E3010008E3010008BF
:10019000E3010008E3010008E3010008E3010008AF
:1001A000E3010008E3010008E3010008E30100089F
:1001B000E3010008DFF80CD000F05CF800480047CD
:1001C00001390008F00E0020064880470648004725
:1001D000FEE7FEE7FEE7FEE7FEE7FEE7FEE7FEE7F7
:1001E000FEE7FEE755200008B501000840EA0103DC
:1001F0009B0703D009E008C9121F08C0042AFAD2DD
:1002000003E011F8013B00F8013B521EF9D27047A0
:100210002DE9F05F0546002092469B46884606463B
:10022000814640241BE0284641464746224600F0CE
:1002300042F853465A46C01A914110D31146184607
:10024000224600F029F82D1A67EB01084F46224696
:100250000120002100F020F817EB00094E41201E7C
:10026000A4F10104DFDC484631462A464346BDE896
:10027000F09F0000064C074D06E0E06840F00103E7
:1002800094E8070098471034AC42F6D3FFF796FF86
:10029000CC3A0008EC3A0008202A04DB203A00FAA5
:1002A00002F1002070479140C2F1200320FA03F3CD
:1002B000194390407047202A04DB203A21FA02F0CB
:1002C0000021704721FA02F3D040C2F12002914090
:1002D00008431946704770B58C1810F8015B15F08B
:1002E000070301D110F8013B2A1106D110F8012BA8
:1002F00003E010F8016B01F8016B5B1EF9D12B07CD
:1003000005D40023521E0DD401F8013BFAE710F882
:10031000013BCB1A921C03E013F8015B01F8015B6F
:10032000521EF9D5A142D8D3002070BD70B586B059
:100330000446032828D81D4D1D4955F82400009077
:100340000120019002900320039034B1012C1DD0B4
:10035000022C1BD0032C08D120E0086840F040009C
:100360000860086800F040000590104E694610369D
:1003700056F8240000F00AF935F82400012281B271
:1003800056F8240000F0F1F906B070BD086840F09E
:1003900008000860086800F00800E5E7086840F415
:1003A00080600860086800F48060DDE7600100207C
:1003B0003038024003280AD80549054A31F8201090
:1003C000103289B252F82000012200F0CEB97047F5
:1003D0006001002003280AD80549054A31F8201099
:1003E000103289B252F82000002200F0BEB97047E6
:1003F00060010020032809D80549054A31F820107A
:10040000103289B252F8200000F0ABB970470000FA
:100410006001002030B504461B4887B0026842F0F6
:10042000010202600068194D00F0010005900020F3
:10043000174B0222E1B1012918D135F81410CDE98A
:1004400002021448CDE9001053F82400694600F078
:100450009DF8AD1C002215F814000F2140B200F0E9
:10046000D1F915F8140040B200F0BEF907B030BD64
:1004700035F81410CDE90010CDE9020253F824003C
:10048000694600F083F8F1E730380240B83A0008D6
:100490005C01002000001110FEE702780A700022C3
:1004A0004A7042788A708278CA70C2780A7102797A
:1004B0004A7142798A718079C8717047704701200A
:1004C00000F058B80849084A0B68091D036009681C
:1004D00008324160126882601BB111B10AB100207C
:1004E0007047012070470000107AFF1F01B54FF0E0
:1004F000E02005E00169C90302D50099491E009179
:1005000000990029F6D108BD10B501282DD1174C4E
:10051000D4F8C003D0F80412012926D190F8FC01C8
:10052000042822D1206A30B11148016821F0060167
:10053000016001F0FBFC2068D0F8001E21F00101F1
:10054000C0F8001E094800F0CAF90A20FFF7CEFFE4
:10055000064800F0E8F9D4F8C013032081F8FC0144
:10056000D4F8C0130020C1F8040210BDB404002068
:1005700010ED00E0044910B50A68024202D008609C
:10058000FFF7C2FF10BD0000143C01402DE9F84FF9
:10059000DFF890B100224FF001084FF0030A4FF04E
:1005A0000F090BF1040E00BF0B6808FA02F4234098
:1005B000A3426ED14D68022D01D0122D0ED1D50867
:1005C00000EB850CDCF820505607F70E09FA07F609
:1005D000B5430E69BE402E43CCF820600668550036
:1005E0000F790AFA05FC07F0030726EA0C06AF406C
:1005F000374307604E68012E05D0022E03D0112E1E
:1006000001D0122E0ED18768CE6827EA0C07AE40C3
:100610003E4386604668A6430C79C4F300149440B8
:1006200034434460C4688E6824EA0C04AE40264318
:10063000C6604C68E4006FD53B4C256845F48045A6
:100640002560246822F0030504F480440094374CAC
:100650002E19D6F8084895072F0F09FA07F5AC436D
:10066000334DA84201D100252EE0324DA84201D1E0
:10067000012529E0304DA84201D1022524E02F4D6B
:10068000A84201D103251FE02D4DA84202D1042527
:100690001AE041E02B4DA84201D1052514E02A4D76
:1006A000A84201D106250FE0284DA84201D1072517
:1006B0000AE0274DA84201D1082505E0254DA842B2
:1006C00001D1092500E00A25BD402543C6F8085898
:1006D000DBF800405D464E689C43F60300D51C43A2
:1006E0002C60DEF8004075464E689C43B60300D58A
:1006F0001C432C600B4D08352C684E689C43F60259
:1007000000D51C432C60074D0C352C684E689C436B
:10071000B60200D51C432C60521C102AFFF444AFD3
:10072000BDE8F88F003C01404438024000300140F1
:10073000000002400004024000080240000C024099
:10074000001002400014024000180240001C024049
:1007500000200240002402400069084000D001202F
:10076000704742694A40426170470AB181617047EF
:100770000904FBE701480068704700008001002081
:1007800002480168491C0160704700008001002098
:100790000B4810B5016841F400710160016841F433
:1007A00080610160016841F480710160032000F004
:1007B00049F8002000F006F800F015F8002010BD00
:1007C000003C024010B5044601F056F84FF47A712F
:1007D000B0FBF1F001F048FA00222146501E00F073
:1007E00011F8002010BD7047002809DB00F01F023F
:1007F000012191404009800000F1E020C0F8001183
:1008000070470000F0B40E4B1B680C46C3F3022384
:10081000C3F10705042D00D90425191D072901D2AC
:10082000002300E0DB1E012606FA05F1491E2140E7
:1008300099409E40761E16403143F0BC02F0D2BD76
:100840000CED00E0064900F0070208684FF6FF03D0
:10085000184040EA0220034A104308607047000035
:100860000CED00E00000FA0501220168C0F8BC238D
:10087000002280F8B423886940F000608861486DE8
:10088000024A104348650020704700000300001032
:1008900070470068416200207047F0B5006800238F
:1008A000446A31B1856A4FF4827604EB15444D1EDB
:1008B0000AE044EA024181620FE006EB8307C75970
:1008C0005B1C04EB1744DBB2AB42F6DB4FF48073E6
:1008D00003EB810144EA024242500020F0BD00686F
:1008E000D0F80818C90705D0D0F8041841F0010164
:1008F000C0F8041800207047D0F8C00301F075BE9E
:10090000C1EBC10200EB8202D0F8C003526C01F0CF
:10091000E2BDC1EBC10200EB8202D0F8C003D2F805
:10092000E82101F02DBE0068D0F8041821F0010183
:10093000C0F8041800207047D0F8C00301F057BE7B
:1009400010B504460A460B0601F07F00C0EBC0015B
:1009500004EB810101D5383101E001F5EE71087039
:10096000D009487094F88003012809D0012084F848
:100970008003206802F032F9002084F8800310BD63
:10098000022010BD70B50A460446090602F07F0039
:1009900005D5C0EBC00104EB8101383105E0C2EBA5
:1009A000C20104EB810101F5EE7100258D70087024
:1009B000D009487094F88003012809D0012084F8F8
:1009C0008003206802F0C9FA84F88053002070BDCB
:1009D000022070BD70B504460D460E0601F07F0082
:1009E000C0EBC00104EB810101D5383101E001F514
:1009F000EE71ED0908704D708A60CB7000D0C88030
:100A00000025022B00D10D7194F88003012809D034
:100A1000012084F88003206802F034F8284684F826
:100A2000805370BD022070BD70B504460E4601F0C3
:100A30007F00C0EBC00104EB81010025C1F8E82173
:100A4000C1E97C3581F8DD5181F8DC01206901F5CF
:100A5000EE71012800D10A6194F8800301280DD0BD
:100A6000012084F880037006227C206808D002F000
:100A7000D5FA00BF84F88053002070BD022070BDFD
:100A800002F0ACF9F6E770B50D460446090605F02C
:100A90007F0005D5C0EBC00104EB8101383105E0D2
:100AA000C5EBC50104EB810101F5EE7101228A70ED
:100AB0000870E809487094F88003012807D084F88A
:100AC0008023206802F07BFA680602D007E002204B
:100AD00070BD217C04F56172206802F01FFA0020CD
:100AE00084F8800370BD70B504460E4601F07F00A7
:100AF000C0EBC00104EB810100254A64C1E9133554
:100B0000012381F8393001F8380F2069012800D11C
:100B10000A6194F8800301280BD084F880337006B2
:100B2000227C206807D002F079FA84F880530020F4
:100B300070BD022070BD02F051F9F6E72DE9F84FC3
:100B4000044600680026054602F0BCFB002875D16B
:100B5000206802F0E0FB002870D0206802F0DBFB88
:100B6000800704D52068416901F0020141612068D5
:100B700002F0D1FB010304F561704FF0010A4FF060
:100B8000000900904DD5206802F0A7FB074646E01B
:100B9000F80742D0F1B2206802F0B5FB8046C007EA
:100BA00028D005EB4612C2F808AB2069012811D104
:100BB000C6EBC60004EB8000D2F8102BD0F8E4118D
:100BC000C2F312028A1AC0F8F421D0F8E8211144C5
:100BD000C0F8E811F1B22046FFF79BFE206901281A
:100BE00008D13EB9D4F8F00120B920680121009A5B
:100BF00002F094F95FEA087007D5204600F0CDFABC
:100C000005EB46110820C1F8080B5FEAC86004D55F
:100C100005EB46111020C1F8080B7F08761C002F49
:100C2000B6D1206802F077FB40034FF0400B5ED551
:100C3000206802F04BFB0746002656E0A3E1F807C8
:100C400051D0F1B2206802F04FFB8046C00724D09B
:100C5000D5F834280AFA06F08243C5F8342805EBA3
:100C60004610C0F808A92069012807D1C6EBC600C4
:100C700004EB8000D0E9101211444164F1B2204627
:100C8000FFF73EFE2069012807D136B9E06C20B994
:100C900020680121009A02F041F95FEA087004D54A
:100CA00005EB46110820C1F808095FEAC86004D5C1
:100CB00005EB46111020C1F808095FEA486003D52A
:100CC00005EB4611C1F808B95FEA887004D505EB59
:100CD00046110220C1F808095FEA086003D53146D1
:100CE000204601F043F87F08761C002FA7D120682A
:100CF00002F011FB002811DAD5F8040820F00100F9
:100D0000C5F8040894F8B40301283AD0204600F04E
:100D10002AFA2068416901F000414161206802F02F
:100D2000FAFA00050BD5D5F80808C00702D020460E
:100D300000F050FA2068416901F4006141612068C7
:100D400002F0E9FA00010AD52068416901F000616A
:100D5000416194F8B403D8B1204600F03BFA206812
:100D600002F0D9FAC00460D5D5F8040820F00100DB
:100D7000C5F804080021206802F074FA0020FF2161
:100D80001BE084F8B49300212046FFF781FDC0E703
:100D900084F8B4A32068406D0121C0F38300C4F837
:100DA000B8032046FFF774FDD9E700BF05EB4012FA
:100DB000C2F80819C2F8081B401C62688242F5D8C4
:100DC0004FF0FF30C5F81808D5F81C0840F00110A6
:100DD000C5F81C08206B60B1D5F8840840F00B0002
:100DE000C5F88408D5F8440840F00B00C5F844085D
:100DF0000BE0D5F8140840F00B00C5F81408D5F83E
:100E0000100840F00B00C5F81008D5F8000820F4D1
:100E1000FE60C5F80008217C2068009A02F07EF888
:100E20002068416901F480514161206802F073FA41
:100E300080041CD5206801F065FE2068C16821F49B
:100E40007051C160206802F01FFA58B30320C4F843
:100E500014B0E0602068C16841F4A051C160204630
:100E600000F070F92068416901F400514161206887
:100E700002F051FAC00640D52068816921F01001C6
:100E80008161D5F8208008F00F00C0EBC00004EBB2
:100E90008007C8F3434007F5EE7702280CD00628F8
:100EA0001CD025E04FF40070C4F80C9060612068FD
:100EB000C16841F41051D1E747F6F07118EA010F0B
:100EC00016D0C8F30A1290462846F96802F027FAAD
:100ED000F8684044F860B869404408E008222846B1
:100EE000009902F01CFAB969C8F30A100844B86105
:100EF0002068816941F010018161206802F00BFADD
:100F0000000707D5204600F032F92068416901F05A
:100F100008014161206802F0FEF9C00208D5F1B273
:100F2000204600F032F82068416901F480114161E7
:100F3000206802F0F0F9800208D5F1B2204600F0F6
:100F400028F82068416901F400114161206802F02D
:100F5000E2F9400007D52046FFF7CEFC2068416942
:100F600001F080414161206802F0D5F940070AD5BF
:100F700020684568680702D52046FFF7DDFC206839
:100F8000416829434160BDE8F88FD0F8C00301F003
:100F900077BBD0F8C00301F075BB0000F0B58BB093
:100FA00004004FF0000554D0032084F8810320464C
:100FB00000F05AF8206801F00BFF04F1100128221C
:100FC0000F466846FFF712F994E80F0001F0B4FDF0
:100FD0000021206802F0B3F901260020C5EBC5010D
:100FE00004EB810181F8396001F8385FCD80C87069
:100FF0008860C8606D1C48610F2DEFD300214FF44D
:10100000827300BFC1EBC10204EB820203EB8105D6
:1010100082F8DD0182F8DC11D18782F8DF01C2F8A5
:10102000E401C2F8E801C2F8F00122685051491CFD
:101030000F29E7D3282239466846FFF7D7F894E806
:101040000F0001F01BFE84F88163606A012803D061
:1010500005E001200BB0F0BD2046FFF705FC20683D
:1010600001F0FFFD0020F5E7F0B53349054687B0F4
:10107000086840F0010008600868002400F00100E2
:1010800005904FF4C05000900220CDE901040320E8
:101090000A26CDE90306294F69463846FFF776FA56
:1010A0007815CDE90004694638460294FFF76EFAD8
:1010B0003815009012200190012002906946049694
:1010C0003846FFF763FA1C48001D016841F08001B3
:1010D000016019491431086840F4804008600868CC
:1010E000002200F48040059005214320FFF78AFB91
:1010F0004320FFF779FB286A01281BD1104980049F
:1011000008600F480838016821F480210160001F41
:10111000016841F48021016009481438016841F4F4
:1011200080210160002211462A20FFF76BFB2A2054
:10113000FFF75AFB07B0F0BD303802400000024014
:10114000143C014070B50446C068012500B9002573
:10115000D4F8C00301F0A9FA2946D4F8C003BDE8C9
:10116000704001F0D3BAD0F8C00301F0BDBAD0F896
:10117000C00301F0BFBA10B5044690F880030128FF
:1011800009D0012084F88003206802F0EEF80020E6
:1011900084F8800310BD022010BDD0F8C02300F5F4
:1011A0006171104601F0BCBA10B5044690F8800396
:1011B00001280CD0012084F88003206801F045FD4F
:1011C000206802F039F8002084F8800310BD022066
:1011D00010BD000010B504460068D0F8001E41F0B4
:1011E0000101C0F8001ED4F8C00301F0D4FA206A4F
:1011F000002804D00248016841F00601016010BDDA
:1012000010ED00E02DE9F8431E48016841F08051DF
:1012100001600068012600F080500090300490FAD0
:10122000A0F0194FB0FA80F047F82060FFF7A2FA5B
:1012300005464FF47A78154C05E000BFFFF79AFA9F
:10124000401B404515D86068C003F7D54FF4003007
:1012500090FAA0F0B0FA80F047F82060FFF78AFA21
:101260000546464608E000BFFFF784FA401BB0423F
:1012700002D90320BDE8F88360688003F4D500201C
:10128000F8E700004038024000000E4200700040C5
:101290002DE9F84F04460078EB4D000605D5286887
:1012A000616B20F00060084328602088C00505D5E8
:1012B0002868A16B20F08050084328602068DFF880
:1012C0008CA3E34EC1074FF0000B47F6C0794FF0F7
:1012D000E04703D1810701D4400656D5CAF868B06B
:1012E000FFF748FA804605E0FFF744FAA0EB080054
:1012F00064287DD830680001F6D42078D549C0072D
:101300000DD099FAA9F26068B2FA82F2904097FA89
:10131000A7F3A268B3FA83F39A40104308602078D9
:10132000800716D5086897FAA7F200F0E040B2FAF5
:1013300082F2D0406268237B920142EA036242EA71
:10134000007008602868226A20F01F00521E1043B7
:1013500028602078400608D56068227B800140EA3A
:101360000260227A40EA027008600120CAF8680030
:10137000FFF700FA804605E0FFF7FCF9A0EB080054
:101380006428B6D830680001F6D52068410707D434
:10139000010705D400067CD5606BB0F1006F78D1F1
:1013A000AA49C1F870B0FFF7E5F9804606E000BF32
:1013B000FFF7E0F9A0EB080064289AD83068C04332
:1013C0008000F5D52078DFF890A242074FF4403036
:1013D0004FF0FF3C4FF0706141D5DAF8002090FAF1
:1013E000A0F302F44032B3FA83F3DA40521C00E077
:1013F00001E14FEA4208DAF8002097FAA7F302F079
:10140000E042B3FA83F322FA03FE99FAA9F22369C0
:10141000B2FA82F293400CEB580290FAA0F8B8FAB4
:1014200088F802FA08F2134391FAA1F8A269B8FA0F
:1014300088F802FA08F297FAA7F81343B8FA88F87E
:101440000EFA08F21343CAF800302A68636A6FF094
:10145000FF0822F4F85208EB03231A432A6022788B
:1014600012073DD5DAF8002090FAA0F302F44032DA
:10147000B3FA83F3DA40521C4FEA4208DAF800204C
:1014800091FAA1F302F07062B3FA83F322FA03FE39
:1014900000E070E099FAA9F22369B2FA82F293406F
:1014A0000CEB580290FAA0F8B8FA88F802FA08F2A1
:1014B00091FAA1F81343B8FA88F80EFA08F2134328
:1014C00097FAA7F8E269B8FA88F802FA08F2134323
:1014D000CAF800302A68A36A22F440321A432A600C
:1014E0002278120636D5626BB2F1006F32D1DAF88B
:1014F000003052468A4691FAA1F103F07063B1FAC6
:1015000081F1CB40116897FAA7F501F0E041B5FAF7
:1015100085F5E94099FAA9F82569B8FA88F805FA35
:1015200008F5D4F8148090FAA0F00CEB580CB0FA3F
:1015300080F00CFA00FC9AFAAAF0B0FA80F083402E
:1015400097FAA7F045EA0C05B0FA80F01D438140F8
:101550000D4315603D4901200867FFF70BF905466B
:1015600005E000BFFFF706F9401B642843D8306848
:10157000C0438000F6D42078800653D534484030EC
:10158000016841F0805101600068344D00F08050E6
:101590000090286840F480702860FFF7EBF806465A
:1015A00005E000BFFFF7E6F8801B642823D8286811
:1015B000C005F7D5274D143D2868A18D00F4407073
:1015C00001F4407188422DD028682549012220F479
:1015D00040700A60C1F800B02860800711D5FFF79D
:1015E000C9F8064641F2883708E000BFFFF7C2F8A5
:1015F000801BB84202D90320BDE8F88F2868800715
:10160000F4D5E16A1248C1F301220830032A13D04D
:10161000016821F4F81101602868A18DC1F30B0164
:10162000084328602078C00604D50E4994F830009D
:10163000C1F8E0010020DFE702680B4B22F4F8124A
:1016400019400A430260E7E78C3802400000474235
:101650000038024084380240883802400070004060
:10166000400E474200104742FFFCFF0F2DE9F05F9C
:10167000DFF8FCA104460F46DAF80000DFF8F48139
:1016800000F00F017B4807F0FF0941F2883508F1AF
:101690000808B94262D28AF80090DAF8001001F026
:1016A0000F01B9427ED12178890707D5D8F80020EB
:1016B000A36822F0F0021A43C8F800202178C90775
:1016C0002ED0616801291AD002291BD0032919D014
:1016D00000688007002865DAD8F80000464620F048
:1016E00003000843C8F80000FFF744F807466068A5
:1016F000012810D002281AD003281ED029E0006843
:101700008003E7E700688001E4E700BFFFF732F8F5
:10171000C01BA84259D83068C0F381000128F5D118
:1017200089E000BFFFF726F8C01BA8424DD83068FB
:10173000C0F381000228F5D17DE03068FFF71AF888
:10174000C01BA842F9D940E0FFF714F8C01BA8421B
:101750003BD8306810F00C0FF6D16CE02178890787
:1017600007D5D8F80020A36822F0F0021A43C8F881
:1017700000202178C9074CD06168012928D00229AE
:1017800029D0032927D000688007002849DAD8F833
:10179000002022F003020A43C8F80020FEF7EAFF07
:1017A000064600E03DE0606801281DD0022829D0EF
:1017B000032838D0AB464546286810F00C0F28D0D7
:1017C000FEF7D8FF811B5945F6D90320BDE8F09FED
:1017D00000688003D9E700688001D6E7FEF7CAFFFA
:1017E000811B594502D9F0E7AB4645462868C0F34E
:1017F00081000128F2D10CE0FEF7BCFF811B5945A6
:1018000002D9E2E7AB4645462868C0F381000228CA
:10181000F2D18AF80090DAF8000000F00F00B84228
:1018200009D00120D2E744462068FEF7A3FF801BC1
:10183000A842F9D9C9E72078400707D5D8F80010A1
:10184000E26821F4E0511143C8F800102078000745
:1018500008D5D8F80010226921F4604141EAC2019C
:10186000C8F800100020FEF7ADFF0020AEE7000032
:10187000003C02400038024010B500F017F808495B
:101880000968F02292FAA2F201F0F001B2FA82F2B3
:10189000D140044A515CC8400349086010BD0000B3
:1018A00008380240BC3A00085801002030B51948F9
:1018B000006810F00C01184812D0441004290ED012
:1018C00008290DD11349091F0A6802F03F030A686D
:1018D000550247F6C07204D5B4FBF3F003E020468E
:1018E00030BDB0FBF3F00B680968134092FAA2F226
:1018F000B2FA82F2D34058434FF4403292FAA2F245
:1019000001F44031B2FA82F2D140491C4900B0FBE7
:10191000F1F030BD083802400024F4002DE9F84F02
:1019200004460078DFF82CA3CB4DC0074FF000062B
:101930004BD0DAF800105046C1F38101012908D0DC
:101940000068C0F3810002280AD1281D0068400207
:1019500006D52868800338D56068002871D034E047
:10196000DFF8F49209F1020989F80060FEF702FF3E
:10197000804641F2883705E0FEF7FCFEA0EB080048
:10198000B8427DD828688003F6D4207989F8000011
:10199000606868B1FEF7EEFE804605E0FEF7EAFEFD
:1019A000A0EB0800B842ECD828688003F6D50CE01C
:1019B000FEF7E0FE804605E0FEF7DCFEA0EB080047
:1019C000B842DED828688003F6D42078A34F800779
:1019D0004FF0010B45D5DAF80010504611F00C0F0E
:1019E0004FF0F80909D00068C0F3810002280BD13C
:1019F0009848001F0068400206D42868800714D564
:101A0000E06801281DD110E0E068D8B1C7F800B047
:101A1000FEF7B0FE804605E0FEF7ACFEA0EB080046
:101A20006428AED828688007F6D5286899FAA9F204
:101A30002169B2FA82F220F0F80091400843286050
:101A40000FE004E13E60FEF795FE804606E000BF31
:101A5000FEF790FEA0EB0800642892D82868800763
:101A6000F6D42078000729D5DFF8E8917C48616931
:101A700009F16C0999B1C0F800B0FEF77BFE00E0F7
:101A800086E0804606E000BFFEF774FEA0EB08008B
:101A900064287DD8D9F800008007F5D50EE00660EF
:101AA000FEF768FE804605E0FEF764FEA0EB080046
:101AB00064286DD8D9F800008007F5D42078400755
:101AC0005AD564483830016841F08051016000689F
:101AD000DFF8909100F080500090D9F8001041F4A8
:101AE0008071C9F80010FEF745FE804606E000BF91
:101AF000FEF740FEA0EB0800642849D8D9F80000A2
:101B0000C005F5D5DFF84C8108F1680888F8006059
:101B1000FEF730FE41F28839009005E0FEF72AFE1C
:101B20000099411A494533D8D8F800008007F5D408
:101B3000207A88F80000A06878B1FEF71BFE0090BC
:101B400006E000BFFEF716FE0099411A494576D817
:101B5000D8F800008007F5D50EE0FEF70BFE0090E8
:101B600006E000BFFEF706FE0099411A494566D817
:101B7000D8F800008007F5D4A069E8B3DAF80010BF
:101B8000C1F38101022962D002283E6605D000E03F
:101B900055E0FEF7EFFD044654E0FEF7EBFD064688
:101BA00005E000BFFEF7E6FD801B642847D82868E3
:101BB0008001F7D4D4E90701084347F6C07292FACE
:101BC000A2F2616AB2FA82F29140A26A4FF0FF3348
:101BD00003EB52024FF4403393FAA3F3B3FA83F3C7
:101BE0009A40114308434FF0706292FAA2F2E16A00
:101BF000B2FA82F2914000E027E008434FF0E04261
:101C000092FAA2F2216BB2FA82F291400843114992
:101C1000091F0860C7F860B0FEF7ACFD044604E099
:101C2000FEF7A8FD001B642809D828688001F7D5B5
:101C30000BE000BFFEF79EFD001B642802D90320C5
:101C4000BDE8F88F28688001F4D40020F8E701206F
:101C5000F6E7000008380240003802400000474222
:101C6000800E47420070004010B5401EB0F1807FEA
:101C700001D3012010BD4FF0E02460610F216017F7
:101C800001F0B0FB0020A06107202061002010BD02
:101C90001CB500200C4900900190097881B10A49D7
:101CA0001431097B01290AD18DF8000004208DF838
:101CB000010006A001F086FB684600F0F3F81CBDA9
:101CC00000F0E8F81CBD0000F400002048616E64DC
:101CD0006C655374616E646172644B657973282915
:101CE0000D0A0000FEE70000F0B500230A243025AD
:101CF00037261F4611E000BFB4EB107F02D905EB79
:101D0000107C01E006EB107C01F813C001EB430CE2
:101D100000015B1C8CF80170DBB29342ECD3F0BD88
:101D2000FEE770470148FEF709BF0000B404002039
:101D300010B50B4C206A68B10A48016821F0060111
:101D4000016000F03DF92068D0F8001E21F001018B
:101D5000C0F8001E04494FF48020086010BD000048
:101D6000B404002010ED00E0143C01402DE9F84FD0
:101D70000F46C1EBC70100EB810582460668D5E935
:101D80001301441A286C3835A04200D20446E01CE6
:101D9000C11700EB91704FEAA00806EB471919E054
:101DA000441AA868A04200D20446E01CC11700EB08
:101DB00091704FEAA0089AF810000090A3B2FAB20E
:101DC0003046E96801F0E2FAE8682044E860A86972
:101DD0002044A861D9F8180981B2414505D9D5E94F
:101DE0000501814201D20028DAD1002C06DC012055
:101DF000D6F83418B8408143C6F834180020BDE83E
:101E0000F88F70477047000070B5FEF7B3FC114EB5
:101E10000546002006F11404307021896068FEF741
:101E20009BFC217B814213D02169691A1E290BD9A1
:101E300020730246002108A0256101F0C3FA0021A9
:101E40000BA0226901F0BEFA207B012800D130707E
:101E500070BD0000F4000020206B6579735B256481
:101E60005D2E5374617465203D2025640D0A0000C9
:101E7000206B6579735B25645D2E537461746543D3
:101E800068616E67654D696C6C6973203D202564DF
:101E90000D0A00001CB5002000900190684600F07B
:101EA00001F81CBD10B5002809D00549FEF7F5FA68
:101EB000BDE8104008220249024800F06BBA10BD8C
:101EC00000010020900200202DE9F041002211497C
:101ED000114800F0DDFA11490F4800F080FC0E486F
:101EE00000F0CAFC00240E4D0E4F26464FF00208AB
:101EF0006E6004EB8400C5E9026807EB800001898D
:101F0000296040680649FEF741FB641C042CEFDBA6
:101F1000BDE8F081A800002090020020040000200D
:101F2000DC08002008010020FEF72ABC70B522481A
:101F3000A2B0016841F080510160006800F080505B
:101F400021901E48016841F440410160006802246C
:101F500000F4404021900120009001908005CDE9DF
:101F60000640082509A908954FF4B470072681E8B2
:101F7000510068460C94FFF7D1FCFFF743F980202D
:101F80000D9000051A9011A94FF4C07081E861000E
:101F90000DA8FFF77DF90F20CDE91C0400201E904D
:101FA0004FF4A0501F90E002209005211CA8FFF7DD
:101FB0005DFB22B070BD0000403802400070004060
:101FC00070B52248A2B0016841F0805101600068FC
:101FD00000F0805021901E48016841F440410160AA
:101FE0000068022400F440402190012000900190FC
:101FF0008005CDE90640082509A908954FF4B4707D
:10200000072681E8510068460C94FFF787FCFFF72C
:10201000F9F880200D9000051A9011A94FF4C070B6
:1020200081E861000DA8FFF733F90F20CDE91C040A
:1020300000201E904FF4A0501F90E0022090052138
:102040001CA8FFF713FB22B070BD0000403802400F
:10205000007000401048016841F4700101600F48B1
:10206000016841F0010101600C4A00210832116051
:1020700002680B4B1A400260031D0A4A1A6002688C
:1020800022F48022026005480C30016002495806A3
:10209000803908607047000088ED00E00038024099
:1020A000FFFFF6FE1030002410B5D0F8142252685D
:1020B0009047002010BD134610B50A46002100F0DD
:1020C000EDFA002010BD134610B50A46002100F0BD
:1020D0006BFB002010BD10B50446802100F04DFBC5
:1020E0002046BDE81040002100F047BB10B5052197
:1020F0000023C0F8F4111A46194600F0CFFA002068
:1021000010BD10B502238261C0F8F431C2611346DC
:102110000A46002100F048FB002010BD10B5042144
:102120000023C0F8F4111A46194600F03DFB0020C8
:1021300010BDF8B5044648880D46010A08294BD25F
:10214000DFE801F04A0409174A4A4048D4F810125F
:10215000207C0A6832E0207C02260028D4F8140291
:1021600005D0C16A684688470146467041E0816AE9
:10217000F8E7C0B206282FD2DFE800F003080D12FE
:10218000171CD4F81012207C4A6817E0D4F81012FB
:10219000207C8A6812E0D4F81012207CCA680DE016
:1021A000D4F81012207C0A6908E0D4F81012207CC0
:1021B0004A6903E0D4F81012207C8A696946904786
:1021C000014616E0207C38B9D4F81402416B684609
:1021D0008847F5E7207C20B129462046FFF77BFFA2
:1021E000F8BDD4F81402016B684688470146072001
:1021F0004870BDF800000028F2D0EA88002AEFD02D
:10220000824200D90246ADF800202046FFF779FF50
:10221000F8BD70B5002300281DD00446002502E05B
:102220006D1CEDB2641C2678002EF9D1022404EB5B
:1022300045041480CC545B1C0322CA5400245B1C4C
:1022400006E0CA545B1CDAB28C54521CD3B2401C58
:102250000278002AF5D170BD10B50A46024903A0E4
:10226000FFF7D7FF004810BD9001002048494420E7
:10227000436F6E6669670000D0F818020021017391
:102280000846704710B50446812100F01DF9D4F8C6
:10229000180220B101F00CFB0020C4F81802002045
:1022A00010BD00001220088000487047C8000020C0
:1022B00022210180004870473C0000200A21018053
:1022C000004870476C00002070B5054600240423C8
:1022D0000322812100F0D8F9102001F0B7FBC5F8E6
:1022E000180218B100210173204670BD0124FBE7DC
:1022F00010B50A46024903A0FFF78BFF004810BD46
:102300009001002048494420496E746572666163FB
:10231000650000000420088000487047C4000020C9
:1023200010B50A46024903A0FFF773FF004810BD2D
:102330009001002053544D6963726F656C6563743E
:10234000726F6E69637300000A4610B5044928B1C4
:1023500004A000BFFFF75DFF014810BD07A0F9E72B
:1023600090010020484944204A6F79737469636B77
:1023700020696E204653204D6F6465004849442013
:102380004A6F79737469636B20696E204853204DDE
:102390006F64650010B5134690F8FC41D0F8182220
:1023A000032C07D1147B2CB9012414730A46812114
:1023B00000F0FAF9002010BD10B51A2008800A4874
:1023C0000168001D0468001D0068081809D0082273
:1023D0000649FFF789FC0549042210312046FFF722
:1023E00083FC0248801E10BD107AFF1FDC00002015
:1023F00070B500220D78D0F81832144615F060053B
:102400001BD0202D40D14A78022A13D0032A0AD0AB
:102410000A2A0BD00B2A03D0FFF75DFE022070BD05
:102420008878186030E00122194624E04888000AC4
:10243000586029E00122191D1DE04D78062D04D0B9
:102440000A2D1BD00B2D1FD11CE04B882225B5EB8C
:10245000132F05D1CA882D2A00D92D220B4C09E053
:102460002125B5EB132F05D1084CCA88183C092A41
:1024700000D909222146FFF744FE05E0012203F1BD
:102480000801F8E788789860002070BD7800002087
:1024900010B580B1D0F8143213B10023C0F8143253
:1024A00009B1C0F81012012180F8FC11027000F08F
:1024B000A9F8002010BD022010BD10B5D0F82002F0
:1024C000FEF760FA002010BD10B5D0F82002FEF72C
:1024D00037FA002010BD2DE9F0411746044641B1FE
:1024E000D4F8140242698AB394F8FC01032842D05C
:1024F00043E0D4F8F411002504F11400022933D18B
:10250000D0E902639E4207D9F31A83609AB2394632
:102510002046FFF7D8FD12E04068B0FBF3F103FB63
:102520001101A1B9984212D3D4F8F81188420ED201
:10253000002211462046FFF7C6FDC4F8F8510023DB
:102540001A461946204600F0A9F80DE012E0D4F82A
:102550001402C16829B194F8FC01032801D1204676
:1025600088472046FFF7C2FD94F80002012804D1F5
:1025700084F8005201E0204690470020BDE8F08139
:1025800070B51546044641B1D4F8140282693AB3D5
:1025900094F8FC01032824D025E0D4F8F41104F5C4
:1025A000827003291FD1D0E902218A420BD9531A24
:1025B00083600846834200D303469AB229462046E8
:1025C000FFF779FD0FE0D4F81402016929B194F8FE
:1025D000FC01032801D1204688472046FFF79EFDD5
:1025E00001E020469047002070BD0020704710B5E4
:1025F000012180F8FC11D0F814220179526890472B
:10260000002010BD154910B54FF0A0420A60042209
:102610004A60002240230A63C1E9042301230B62BC
:102620000223C1E90632CA62CB604A62C1F8C00324
:10263000C0F820120846FEF7B1FC80210748FEF7DB
:1026400028F9402200210548FEF727F980220121C0
:102650000248FEF722F9002010BD0000B40400205B
:102660000A0601F07F01D0F82002C1EBC10100EBA6
:10267000810002D590F83A00704790F8DE0170476B
:10268000002070470020704710B51C461346D0F854
:1026900020022246FEF79EF9002010BD10B5D0F8AA
:1026A0002002FEF7C1F9002010BD70B500220446DB
:1026B00040231146FFF7E8FF40252B4600228021EA
:1026C0002046C4F81051FFF7DFFF0120256284F88F
:1026D000FC01D4F8180228B1D4F814022179426818
:1026E00020469047002070BD90F8FD1180F8FC1145
:1026F0000020704710B590F8FC11032904D1D0F8E0
:102700001412C96901B18847002010BD017400206E
:10271000704710B5D0F82002FEF72DFD002010BD47
:1027200070B5044600F50270054600F044F801203B
:10273000C4F8F401B4F80E02C4F8F80194F80802E1
:1027400010F01F010AD001290DD0022910D000F08D
:102750008001204600F011F8002070BD2946204677
:1027600000F08FF8F8E72946204600F071F9F3E70A
:102770002946204600F0FEF8EEE710B5D0F820021A
:10278000FEF781F9002010BD10B5D0F82002FEF749
:102790000BFD002010BD90F8FC1180F8FD11042104
:1027A00080F8FC110020704710B5D0F82002FEF729
:1027B0009AF9002010BD0A7802704A7842708A782F
:1027C000CB7802EB032242800A794B7902EB032299
:1027D00082808A79C97902EB0121C1807047024663
:1027E000002011B1C2F8141270470220704710B5D2
:1027F000D0F8142202241AB11268904700B90024BC
:10280000204610BD70B50E461A4D897804462970D1
:10281000012928D894F8FC01022802D0032822D1EB
:1028200005E099B10320616084F8FC0109E091B1F1
:10283000606888420AD0C1B22046FFF735FC29788B
:1028400061602046FFF7D3FF02280CD02046BDE888
:102850007040FFF763BC022084F8FC0120466160F1
:10286000FFF722FCF2E731462046BDE87040FFF753
:1028700032BC00000000002010B5FFF785FF0020EB
:1028800010BD2DE9F04100264B78012532460A2B78
:1028900043D2DFE803F03C584251420805422A2760
:1028A000FFF747FC63E004468888C8B9C888B8B910
:1028B000887800F07F0794F8FC01032810D084F892
:1028C000FE7139462046FFF724FF2046FFF726FC1D
:1028D0001FB1022084F8FC0149E084F8FC5146E075
:1028E00020461AE0FFF78EFF41E0CB88012B14D180
:1028F00090F8FC31022B02D0032B0ED104E0826051
:10290000012200F1080114E00122011D11E090F8FC
:10291000FC21022A04D0032A02D0FFF7DCFB26E0C8
:10292000C560D0F8041209B10321C160022200F190
:102930000C01FFF7E6FB1AE004464888012816D18F
:10294000C4F804520BE0044690F8FC01022801D0C0
:102950000328C5D14888012809D1C4F80422D4F835
:1029600014028268204690472046FFF7D7FB304686
:10297000BDE8F08170B50D46044628780026097937
:10298000C0F34110012806D06878A0B301281FD0F9
:1029900003283FD107E0D4F8140229468268204674
:1029A0009047002070BD94F8FC01022817D003283E
:1029B0002CD1688828B921B1802902D02046FFF7A0
:1029C000DCFED4F81402294682682046904713E0C2
:1029D00094F8FC01022802D0032817D103E0C9B102
:1029E00080291BD116E06888A0B9480604D020468B
:1029F000FFF763FDE5E703E02046FFF78FFB09E003
:102A000094F8FC01022807D003280BD02946204661
:102A1000FFF761FB304670BD4806FBD02046FFF74C
:102A2000ACFEF7E7080601F07F0004EB001501D5C6
:102A3000143501E005F582752046FFF711FE00B15F
:102A400001202860022229462046FFF75AFBE1E7D1
:102A500070B5054690F8FC010C4603280DD120798D
:102A600001280AD8D5F81402826828469047E088E1
:102A700030B92846FFF752FB02E02846FFF72BFB50
:102A8000002070BD30B54C781D4B01220D78AA4056
:102A9000012CD0F81C4818D044EA0242C0F81C2887
:102AA0000A7800EB4210D0F8002B12040BD4D0F8B7
:102AB000002B0C89C4F30A042243C97843EA8141FC
:102AC0000A43C0F8002B002030BD92B21443C0F876
:102AD0001C480C7800EB4410D0F800291204F2D402
:102AE000D0F800290D89C5F30A052A43C97889045D
:102AF00041EA84510A431A43C0F80029E3E7000081
:102B000000800010D0F800196FF30A01C0F8001916
:102B1000D0F80818C1F34101022905D1D0F80019F5
:102B200041F00301C0F80019D0F8041841F4807195
:102B3000C0F804180020704770B50446049D06993B
:102B40000D9801290CD0E06840F04000E06020467C
:102B500000F028F84FF48030A063012D16D01DE05E
:102B6000A16B21F48031A163E1680D4A1140E1605D
:102B7000E16821F44011E160012803D1E06840F4EC
:102B80008010E060204600F00DF8E6E7A06840F015
:102B90000C00A060A06840F02000A060002070BD84
:102BA000BFFFBDFF01220C4902E0521C8A420BD834
:102BB0000369002BF9DA026942F001020261012285
:102BC00004E0521C8A4201D9032070470369DB07E5
:102BD000F7D1002070470000400D030030B54D785C
:102BE00001220C7802FA04F3012DD0F83C4816D0EB
:102BF00024EA0343C0F83C38D0F81C380C78A240D3
:102C000023EA0242C0F81C28097800EB4110D0F8F2
:102C1000001B21F40041C0F8001B002030BD9BB216
:102C20009C43C0F83C48D0F81C380C78A24092B2C3
:102C30009343C0F81C38097800EB4110D0F8001914
:102C400021F40041C0F80019E7E710B5D0F80418E6
:102C500021F00201C0F804180320FDF747FC002012
:102C600010BD10B5D0F8041841F00201C0F80418E6
:102C70000320FDF73BFC002010BD00002DE9F047CC
:102C80000E460446DDE90A1A0025DDF83C80089F5F
:102C9000806B40F40010A063B8F1000F0BD1A06B63
:102CA00020F40010A063206840F0400020602068FD
:102CB00040F0800020604FF00009C4F8009ED4F876
:102CC0000008C4F80008012904D0D4F8000840F036
:102CD000030004E0D4F800080BB140F00100C4F890
:102CE00000081021204600F0BDFA204600F0AAFAA4
:102CF0004846C4F81098C4F814984FF0FF31C4F84F
:102D00001818C4F81C984FF0904CFF2310E000BF37
:102D100004EB4511D1F80029002A02DAC1F800C9F4
:102D200001E0C1F80009C1F81009C1F808396D1CAB
:102D3000AE42EDD800210FE004EB4112D2F8005B67
:102D4000002D02DAC2F800CB01E0C2F8000BC2F895
:102D5000100BC2F8083B491C8E42EDD8D4F810186D
:102D600021F48071C4F81018012F0AD11449C4F855
:102D70003018D4F83018134A1143C4F83018D4F876
:102D80003018A0616FF0804060611FB9A06940F009
:102D90001000A061A0690C490843A061BAF1000FBE
:102DA00003D0A06940F00800A061B8F1010F03D181
:102DB000A06906490843A0610020BDE8F087000033
:102DC000000180000300010000383C800400004046
:102DD000816821F0010181600020704730B54D7895
:102DE0004D4C0B7800EB4313012D28D0D3F8105B2A
:102DF0006FF31205C3F8105B0B7800EB4313D3F8A5
:102E0000105B2540C3F8105B4B690BB18B684B61BD
:102E10000B7800EB4313D3F8104B44F40024C3F8B1
:102E2000104B0B7800EB4313D3F8104B8D68C5F3B0
:102E300012052C43C3F8104B012A5CD061E04D69A8
:102E4000002DD3F810593BD06FF31205C3F8105979
:102E50000B7800EB4313D3F810592540C3F81059F1
:102E60004C698B689C4200D94B610B7800EB431393
:102E7000D3F8104944F40024C3F810490B7800EB50
:102E80004313D3F810494D69C5F3120554EA0504FC
:102E9000C3F81049012A27D04A693AB1D0F834283A
:102EA0000C780123A3401A43C0F83428097800EBBA
:102EB0004110D0F8001941F00441C0F8001929E090
:102EC0002540C3F810590B7800EB4313D3F8104991
:102ED00044F40024C3F810490B7800EB4313D3F8F3
:102EE00010496FF31204D3E70B7800EB43130A6920
:102EF000C3F81429DAE70B7800EB4313CA68C3F868
:102F0000142B097800EB4110D0F8001B41F004416C
:102F1000C0F8001B002030BDFFFF07E00023C0F811
:102F2000103BD0F8103B43F40023C0F8103BD0F81E
:102F3000103B43F01803C0F8103BD0F8103B43F0AF
:102F4000C043C0F8103B012905D1C0F8142B4FF045
:102F50008021C0F8001B002070474B780A7800EBF6
:102F60004212012B0BD0D2F8003B23F40013C2F81D
:102F7000003BCA78032A17D0022A15D01DE0D2F8E8
:102F8000003923F40013C2F80039CA78032A01D0AB
:102F9000022A12D1097800EB4110D0F8001941F053
:102FA0008051C0F8001908E0097800EB4110D0F812
:102FB000001B41F08051C0F8001B002070474B7887
:102FC0000A7800EB4212012B14D0D2F8003B002B00
:102FD00005DBD2F8003B23F08043C2F8003B0978C0
:102FE00000EB4110D0F8001B41F40011C0F8001BA9
:102FF00000207047D2F80039002B05DBD2F80039E9
:1030000023F08043C2F80039097800EB4110D0F872
:10301000001941F40011C0F80019E9E778B54E78BD
:103020006FF06045834C0B7800EB4313012E2FD0DB
:10303000D3F8106B6FF31206C3F8106B0B7800EB2C
:103040004313D3F8106B2640C3F8106B4B69002B69
:103050007DD08C6823445B1EB3FBF4F39BB20C78E9
:1030600000EB4414D4F8106B05EAC3452E43C4F8B2
:10307000106B0C7800EB4414D4F8105B8E685E4340
:10308000C6F312031D43C4F8105B012A73D0B2E0EB
:103090004E6966B3D3F810696FF31206C3F810696E
:1030A0000B7800EB4313D3F810692640C3F810697E
:1030B0004C698B681C44641EB4FBF3F305EAC344FB
:1030C0000B7800EB4313D3F810592C43C3F8104985
:1030D0000B7800EB4313D3F810494D69C5F3120583
:1030E0002C43C3F81049CB78012B16D027E0D3F836
:1030F00010592540C3F810590B7800EB4313D3F84F
:10310000104944F40024C3F810490B7800EB431332
:10311000D3F810496FF312040FE00B7800EB431360
:10312000D3F8104924F0C044C3F810490B7800EBE1
:103130004313D3F8104944F00054C3F81049012A4E
:1031400012D0CB78012B17D04B692BB300E037E0BE
:10315000D0F834380D780124AC402343C0F834381B
:10316000CB78012B08D017E00C7800EB44140B69E6
:10317000C4F81439F4E738E0D0F80838DB050B78E8
:1031800000EB4313D3F8004902D444F0005401E0AB
:1031900044F08054C3F800490B7800EB4313D3F894
:1031A000004944F00444C3F80049CB78012B3ED1D8
:1031B00000928A8A93B20A78C96800F0E7F836E08C
:1031C0000B7800EB4313D3F8104B8D68C5F3120551
:1031D0002C43C3F8104B0B7800EB4313D3F8104B80
:1031E00044F40024C3F8104B4FE70B7800EB431373
:1031F000CA68C3F8142BCA78012A0FD1D0F808285E
:10320000D2050A7800EB4212D2F8003B02D443F018
:10321000005301E043F08053C2F8003B097800EB13
:103220004110D0F8001B41F00441C0F8001B002001
:1032300078BD0000FFFF07E0816841F00101816077
:1032400000207047002110220261054A491C91426A
:1032500001D9032070470369DB06F7D400207047CB
:10326000400D03000022202343EA8111016105493A
:10327000521C8A4201D90320704703699B06F7D488
:1032800000207047400D03000021D0F8082812F0FC
:10329000060F15D0D0F80828C2F34102012A0CD03D
:1032A000D0F80828C2F34102032A06D0D0F8080853
:1032B000C0F34100022802D002E0032100E0022115
:1032C00008467047406900F001007047D0F81818B0
:1032D000D0F81C08084080B27047D0F81818D0F811
:1032E0001C080840000C7047D0F81038D0F834287B
:1032F000CA4002F0010243EAC21200EB4110D0F8CA
:1033000008091040704700EB4111D1F8081BD0F8B4
:10331000140808407047416980690840704710B53B
:1033200003460020D21C920803F5805303E01C687A
:1033300041F8044B401C9042F9D3084610BD10B52B
:10334000C26822F0C042C260012901D021B107E069
:10335000C16841F0005102E0C16841F08041C160A4
:103360003220FDF7C3F8002010BDD0F8002822F469
:10337000FE62C0F80028D0F800284FF4FE6303EA8C
:1033800001110A43C0F800280020704730B500241E
:10339000039D6DB9DB1C9B0800EB023000F58050EB
:1033A00004E000BF51F8042B0260641C9C42F9D376
:1033B000002030BD10B5FEF727FDBDE81040FEF738
:1033C00067BCFEE70FB4054B10B503A9044A029889
:1033D00000F028F810BC5DF814FB000089380008E4
:1033E000840100200907090E002804DB00F1E02019
:1033F00080F80014704700F00F0000F1E02080F822
:10340000141D704702E008C8121F08C1002AFAD133
:1034100070477047002001E001C1121F002AFBD154
:10342000704700002DE9FF4F8DB00F46054600267E
:1034300006E025280BD0DDE90F1290476D1C761CA5
:1034400028780028F5D111B03046BDE8F08F00246F
:10345000A246A1460122EC4900E0044315F8013FD1
:10346000203B02FA03F00842F7D128782A2810D02E
:103470006FF02F022878A0F13001092914D80AEB47
:103480008A0102EB410144F0020400EB010A6D1CC9
:10349000F0E701CF5FEA000A03D544F40054CAF113
:1034A000000A44F002046D1C28782E2817D115F864
:1034B000010F44F004042A280ED06FF02F02287860
:1034C000A0F1300109290AD809EB890102EB410179
:1034D00000EB01096D1CF2E757F8049B6D1C28787E
:1034E0006C280FD006DC4C2817D068280DD06A282D
:1034F00014D104E0742810D07A280FD10DE044F4E0
:1035000000140AE044F4801401E044F440146978A3
:10351000814202D104F580146D1C6D1C2A786E2A3C
:103520001FD00CDC632A31D004DC002A8BD0582A4F
:1035300011D1A3E0642A68D0692A0CD165E0732A0E
:103540002ED004DC6F2A73D0702A04D19BE0752A38
:103550006FD0782A6ED01046DDE90F129047761CA6
:1035600050E1C4F30250022806D0032809D00428F1
:1035700001CF09D0066045E101CFF117C0E9006134
:1035800040E101CF06803DE106703BE117F8040BF6
:103590008DF8000000208DF80100EB46012003E0CB
:1035A00057F804BB4FF0FF3061074FF0000102D421
:1035B0000DE008F10101884649450FDA8045F8DB46
:1035C0001BF808100029F4D108E008F10101884631
:1035D0008142FADB1BF808100029F6D1DDE90F2340
:1035E000AAEB08008146214600F036F9304400EB92
:1035F000080604E0DDE90F121BF8010B9047B8F153
:103600000108F7D221464846F7E00A21C4F30253E5
:103610004FF0000B0891022B04D001CFC117032BF0
:1036200009D00AE0FF1D27F00707F7E8020108E0CC
:1036300032E01FE020E000B2C117042B01D140B2FC
:10364000C117031E71F1000307DA4FF0000CD0EB35
:103650000C006CEB01012D2302E0230504D52B2384
:103660008DF82430012303E0E30701D02023F7E79E
:10367000984658E00A2110E010210EE010204FF08B
:10368000000B08900CE010214FF0000B44F00404F4
:103690004FF00809089103E008214FF0000B089152
:1036A000C4F30253022B04D001CF0021032B06D018
:1036B00006E0FF1D27F00707F7E8020103E080B2EC
:1036C000042B00D1C0B24FF0000823072BD5702A7D
:1036D00007D0DDF820C08CF0100C5CEA0B0C05D094
:1036E0000EE040238DF82430012308E050EA010366
:1036F00006D030238DF824308DF8252002239846FB
:10370000DDF820C08CF0080C5CEA0B0C0BD150EA01
:10371000010301D1630706D530238DF824304FF023
:103720000108A9F10109582A04D038A20B9208AA6D
:103730000A920BE03AA2F9E75B46089AFCF768FDAB
:103740000B9B9B5C0A9A521E0A92137050EA01026C
:10375000F2D10A98ADEB000000F1200B600702D512
:1037600024F4803401E04FF00109D94502DDA9EBD2
:103770000B0000E0002000EB0B0141440890AAEB95
:10378000010AE00306D4DDE90F232146504600F08C
:1037900063F806444FF0000908E009A911F8090090
:1037A000DDE90F12904709F10109761CC145F4DBF0
:1037B000E0030CD5DDE90F232146504600F04CF81C
:1037C000064404E0DDE90F1230209047761C08998A
:1037D000481E08900029F5DC08E00A980A9900784C
:1037E000491C0A91DDE90F129047761CBBF10001DC
:1037F000ABF1010BF1DC21465046DDE90F2300F06F
:1038000019F806446D1C1BE60928010030313233DB
:10381000343536373839616263646566000000000C
:1038200030313233343536373839414243444546F6
:10383000000000002DE9F041044600251E46174611
:10384000880404D405E039462020B0476D1C641E6E
:10385000F9D52846BDE8F0812DE9F0410446002560
:103860001E469046C80301D5302700E02027880473
:1038700004D505E041463846B0476D1C641EF9D5B5
:103880002846BDE8F081000008490968C90706D04C
:10389000064980390968CA074FF0604101D1704775
:1038A00000BF0A68002AFBD008707047800E00E055
:1038B00010B5002821D0114B0022001F196803E029
:1038C000814203D80A4649680029F9D152B11368E8
:1038D000841A9C4204D1006818441060104602E02B
:1038E000506000E0186039B102680B1A934203D1AE
:1038F0000B681A4402604968416010BD88010020CD
:1039000086B000200090019002900390FCF740FFE9
:10391000FEF756FB2E48016841F001010160006886
:1039200000F0010004900020FCF700FD0120FCF7EE
:10393000FDFC0220FCF7FAFC0320FCF7F7FC012059
:10394000FCF748FD23A0FFF73DFD29A0FFF73AFD56
:103950006846FCF7B7FDA0B12AA0FFF733FD9DE84C
:103960000E002DA0FFF72EFDFEF7AEFA002108464F
:10397000FCF750FD0024FFF71DFD4EF66026324D8A
:103980000CE09DE80E0024A0FFF71CFDE7E70024F3
:103990002046FCF72FFD0320FCF72CFD29896868E1
:1039A000FCF7DAFE00284FF001000AD0FCF702FD18
:1039B0000220FCF70FFD641CFFF7FCFCB442EDDBBA
:1039C000E5E7FCF707FD0220FCF7F4FCF3E7000055
:1039D0003038024048656C6C6F205553422048498E
:1039E000442046756E6374696F6E210D0A000000F5
:1039F0004D79206E616D6520697320576164652182
:103A00000D0A0000476574204368697049442065C9
:103A100072726F720D0A00004368697049443A205F
:103A20005B305D203D203078253878205B315D208B
:103A30003D203078253878205B325D203D2030787D
:103A40002538780A0000000008010020F0B50B308E
:103A5000154D20F007010024144A0FE003688B4243
:103A60000BD38B4205D95E1A43184768C3E9006738
:103A700000E04368136002C004E0021D10680028E3
:103A8000ECD12046002802D1286808B10020F0BD02
:103A9000064A07481060074A121A22F00702C0E9D6
:103AA000002401202860D7E78C0100208801002035
:103AB000F4080020F00A00200100060000000000C9
:103AC000010203040102030406070809EC3A000896
:103AD0000000002090010000D6020008B83B00085A
:103AE00090010020600D0000143400084113C92229
:103AF0001B08850413F12382081A791001101AB1EA
:103B00001469041ABD041409022213010125E032CC
:103B100009041B01030B15092111011401222D16A3
:103B20000705810304220A791231130A063202338F
:103B30004001100E05010906A101050719E029E75A
:103B400015181325017501950881029501750881E5
:103B50000395067508141A651E111429658132C073
:103B60001AA5701A15A01A21041A49041AB9042AB0
:103B700059B419044F0403090412015C158304109D
:103B80005714020102042C011A03520F3A029C81BD
:103B90005A05142959815A0614B2085AA014C210A1
:103BA0003B24F414324029183220393414180240CE
:083BB0005A0C041A2804F1006C
:04000005080001B539
:00000001FF
